:100000000C94E3000C940B010C940B010C940B0169
:100010000C940B010C940B010C940B010C940B0130
:100020000C940B010C940B010C9427050C9499056E
:100030000C940B010C940B010C940B010C940B0110
:100040000C940B010C940B010C940B010C940B0100
:100050000C940B010C940B010C940B010C94C9072C
:100060000C940B010C940B010C940B010C940B01E0
:100070000C940B010C940B010C940B010C940B01D0
:100080000C940B010C940B010C940B010C940B01C0
:100090000C940B010C940B010C940B010C940B01B0
:1000A0000C940B010C940B010C940B0108030B0333
:1000B000FA02FE0202032C032C032C030F0313038A
:1000C00017031D0321032C03270307060504010062
:1000D000080A0B0C0D0900000000240027002A006C
:1000E0002D00300000000000250028002B002E000D
:1000F00031000404040404030405020202020403A0
:1001000002020202060606060606040402020204B1
:100110000404080201104080401020408040800804
:100120000204018040201002011080102040402075
:100130000000000200090F0000030401000C000091
:1001400000000000000000000000000000000008A7
:100150000B0002020201000904000001020200007B
:1001600005240010010524010101042402060524D0
:100170000600010705810310004009040100020A7E
:10018000000000070502024000000705830240004E
:10019000000403090412010002EF0201404123366A
:1001A0008000010102030141726475696E6F204C89
:1001B0004C430041726475696E6F204C656F6E61CF
:1001C00072646F00160911241FBECFEFDAE0DEBFA4
:1001D000CDBF11E0A0E0B1E0E4EBF2E102C0059098
:1001E0000D92AE33B107D9F721E0AEE3B1E001C023
:1001F0001D92AD3AB207E1F710E0C3EED0E004C0C3
:100200002197FE010E944D09C23ED107C9F70E9405
:1002100013080C9458090C940000FC0180915C01B7
:10022000811103C08FEF9FEF08959FB7F89482E08C
:100230008093E9002091F20030E01216130614F4C6
:1002400021E030E02115310559F0289884E68093AB
:100250005B018091F10080838091F200882319F086
:100260009FBFC90108958BE68093E800F9CF2FB7AF
:10027000F89483E08093E9009091E800892F8072E0
:1002800095FF04C09091F20080E4891B2FBF089570
:100290008091530181110DC082E080934F0184E071
:1002A00080935001109252011092510181E080938D
:1002B00053018FE491E008954091490150914A0122
:1002C000209147013091480142175307B4F49091AF
:1002D000E8009570E1F39091E80092FD19C08093D9
:1002E000F1008091490190914A0101968F739927FD
:1002F000892B19F48EEF8093E80080914901909149
:100300004A01019690934A018093490181E0089542
:1003100080E00895CF92DF92EF92FF920F931F93A8
:10032000CF93DF931F92CDB7DEB7182F062FE42EA1
:10033000862F880F8E5F99830E945C0183E00E9464
:100340005C01F12EC12E9981D92E8C2D8F19801729
:1003500098F4F601E7FE02C0849101C080810E94FA
:100360005C01182F80E00E945C018123FFEFCF1A0F
:10037000DF0A8111EACF01C081E00F90DF91CF91B8
:100380001F910F91FF90EF90DF90CF900895DF9233
:10039000EF92FF920F931F93CF93DF93D82E8A0192
:1003A0007B01E40EF51EEB01CE15DF0571F0D7FEE3
:1003B00003C0FE01849101C088810E945C012196E6
:1003C0008111F2CF8FEF9FEF01C0C801DF91CF9174
:1003D0001F910F91FF90EF90DF9008950F931F935F
:1003E000CF93DF931F92CDB7DEB782E0898342E4DB
:1003F00050E06FE471E080E80E94C7010E9448016C
:10040000DC0112960D911C9113970115110569F0ED
:10041000D801ED91FC910280F381E02DBE016F5F68
:100420007F4FC801099597FF07C089810F90DF9121
:10043000CF911F910F910895F80100851185E5CFA7
:10044000615030F02091F100FC0120830196F8CF3B
:10045000289884E680935B010895CF92DF92EF9213
:10046000FF920F931F93CF93DF936C017A018B015F
:10047000C0E0D0E0CE15DF0589F0D8016D918D0187
:10048000D601ED91FC910190F081E02DC601099516
:10049000892B11F47E0102C02196ECCFC701DF91B8
:1004A000CF911F910F91FF90EF90DF90CF90089523
:1004B000CF93DF931F92CDB7DEB76983DC01ED9157
:1004C000FC910280F381E02D41E050E0BE016F5FBE
:1004D0007F4F09950F90DF91CF91089583E080932E
:1004E000E9008091F200882319F08AE38093E80004
:1004F00008950E94370190E00895CF93DF931F92F3
:10050000CDB7DEB7FC018485958597FD05C02FEF3B
:100510003FEF358724870BC0CE0101960E940D0165
:10052000019719F4898190E002C08FEF9FEF0F903F
:10053000DF91CF9108950F931F93CF93DF931F9275
:10054000CDB7DEB78C01FC018485958597FF0EC081
:10055000CE0101960E940D01019719F4298130E026
:1005600002C02FEF3FEFF80135872487F80184851B
:1005700095850F90DF91CF911F910F910895FC0108
:100580008485958597FD0BC09FB7F89482E0809392
:10059000E9008091F2009FBF90E0019608959FB717
:1005A000F89482E08093E9008091F2009FBF90E090
:1005B0000895089580E090E00895362F90E0FC01C2
:1005C000E05DFE4F4491FC01EF5EFE4F2491FC0183
:1005D000EE50FF4F8491882309F451C04423E1F188
:1005E00050E0FA013197EF30F105B0F5EA5AFF4FCC
:1005F0000C944D09909180009F7707C090918000E6
:100600009F7D03C090918000977F9093800024C0CD
:1006100094B59F7702C094B59F7D94BD1DC0909105
:1006200090009F7707C0909190009F7D03C09091AC
:100630009000977F909390000FC09091C0009F779B
:1006400003C09091C0009F7D9093C00005C0909121
:10065000C200977F9093C200E82FF0E0EE0FFF1FDB
:10066000EC51FF4FA591B4918FB7F894EC913111F3
:1006700003C020952E2301C02E2B2C938FBF0895ED
:10068000CF93DF9390E0FC01EF5EFE4F2491FC01DD
:10069000EE50FF4F8491882361F190E0880F991FFD
:1006A000FC01EA52FF4FC591D491FC01EC51FF4F80
:1006B000A591B491611109C09FB7F89488812095E4
:1006C00082238883EC912E230BC0623061F49FB7A4
:1006D000F8943881822F809583238883EC912E2B88
:1006E0002C939FBF06C08FB7F894E8812E2B2883E8
:1006F0008FBFDF91CF910895823108F08251E82FAA
:10070000F0E0E653FF4FE49180917B00E3FB22276A
:1007100020F930E095E0220F331F9A95E1F78F7DA5
:10072000282B20937B00E770E064E0937C008091AD
:100730007A00806480937A0080917A0086FDFCCFF5
:10074000809178002091790090E0922B08953FB736
:10075000F8948091430190914401A0914501B0919A
:10076000460126B5A89B05C02F3F19F00196A11D93
:10077000B11D3FBFBA2FA92F982F8827820F911D37
:10078000A11DB11DBC01CD0142E0660F771F881F7E
:10079000991F4A95D1F708958F929F92AF92BF9279
:1007A000CF92DF92EF92FF926B017C010E94A70330
:1007B0004B015C01C114D104E104F104F1F00E9489
:1007C000A703DC01CB0188199909AA09BB09883E56
:1007D0009340A105B10570F321E0C21AD108E108E8
:1007E000F10888EE880E83E0981EA11CB11CC1148C
:1007F000D104E104F10419F7DDCFFF90EF90DF9011
:10080000CF90BF90AF909F908F9008958F929F92BE
:10081000AF92BF92CF92DF92EF92FF920F931F930E
:10082000CF93DF935C016B017A0180910B018823E8
:1008300009F45BC080915C01882309F456C0809163
:100840004D0180FF05C08091E00082608093E00050
:10085000E70110E00AEF83E0882E9AE3992E2097B3
:10086000D9F10E94370181110AC0015009F43DC03D
:1008700061E070E080E090E00E94CC03F0CF282F90
:1008800030E0C217D3070CF48C2F4FB7F894809246
:10089000E9009091E80095FF1DC0282F30E0C21BB1
:1008A000D30BF601982F915020F081918093F100A5
:1008B000FACFC20ED31E112319F09092E80009C09E
:1008C0008091E80085FD06C09092E80011E0209735
:1008D00009F010E04FBFC3CF1111C3CF5D9884E67C
:1008E00080934B011E141F0444F081E090E0F50159
:1008F0009383828380E090E001C0C701DF91CF91B4
:100900001F910F91FF90EF90DF90CF90BF90AF902D
:100910009F908F900895BC01009791F0FC01019089
:100920000020E9F73197AF01481B590BE0915D01B9
:10093000F0915E010280F381E02D8DE591E0099454
:1009400080E090E008958F929F92AF92BF92CF92F5
:10095000DF92EF92FF920F931F93CF93DF93CDB768
:10096000DEB7A1970FB6F894DEBF0FBECDBF6C0106
:10097000990FEE08FF08F7FE31C0E0915D01F0919C
:100980005E010190F081E02D6DE28DE591E0099529
:100990008C0122273327A9012C193D094E095F0933
:1009A00019A2CE0181967C019AE0892E912CA12C6E
:1009B000B12CCA01B901A50194010E942B09605D07
:1009C000F70162937F01211531054105510589F732
:1009D000CF010E948B04080F191F1EC0A7019601AA
:1009E00019A28E010F5D1F4F8AE0C82ED12CE12C79
:1009F000F12CCA01B901A70196010E942B09605D83
:100A0000F80162938F01211531054105510589F7E0
:100A1000CF010E948B048C0185E291E00E948B043F
:100A2000800F911FA1960FB6F894DEBF0FBECDBF09
:100A3000DF91CF911F910F91FF90EF90DF90CF90BA
:100A4000BF90AF909F908F9008950E9453091F927E
:100A50000F920FB60F9211248F939F938091E10014
:100A60009091E100937F9093E10083FF0FC010927B
:100A7000E90091E09093EB001092EC0092E39093E8
:100A8000ED0010925C0198E09093F00082FF20C08E
:100A900093E09093E9009091F200992319F09AE382
:100AA0009093E80090914B01992339F090914B017C
:100AB000915090934B01992389F190915B01992377
:100AC00039F090915B01915090935B01992341F132
:100AD00084FF10C08091E2008E7E81608093E200EE
:100AE0008091E1008F7E8093E10080914D018E7EA8
:100AF000806111C080FF16C08091E2008E7E80610F
:100B00008093E2008091E1008E7E8093E1008091ED
:100B10004D018E7E816080934D0104C05D9ACDCFE2
:100B2000289AD6CF9F918F910F900FBE0F901F9054
:100B300018951F920F920FB60F921124CF92DF9249
:100B4000EF92FF920F931F932F933F934F935F93D7
:100B50006F937F938F939F93AF93BF93EF93FF9385
:100B6000CF93DF93CDB7DEB76C97DEBFCDBF1092CA
:100B7000E9008091E80083FFEDC168E0CE01459671
:100B80000E94200282EF8093E8008D8987FF05C0D4
:100B90009091E80090FFFCCF03C09EEF9093E80097
:100BA000982F907609F0C6C09E892F89188D9111D3
:100BB0000CC0803829F480914E018093F10002C06E
:100BC0001092F1001092F10048C1422F50E0512BD9
:100BD000913051F4811141C14130510509F03DC1BD
:100BE00080914E018D7F0BC0933061F4811135C12E
:100BF0004130510509F031C180914E0182608093EE
:100C00004E012BC1953041F48091E80080FFFCCF6C
:100C100020682093E30021C1963009F05FC0EB8C7F
:100C2000FC8C1092E90010924A0110924901123096
:100C300091F510924801109247010E94EE0199E04F
:100C4000BE016F5F7F4FDB01E92F1D92EA95E9F747
:100C500099831A8391E09E8390EA98879AEF998707
:100C60002091490130914A01275F3F4F3C832B83FC
:100C70008D831092E90010924A0110924901F0927E
:100C80004801E092470149E050E080E00E94C7013E
:100C90000E94EE01E2C0F0924801E09247010E94FA
:100CA0004801DC011296ED90FC901397E114F104D9
:100CB00009F4C0C0D701ED91FC910480F581E02DCD
:100CC000BE016B5E7F4FC7010995009719F00CF0CC
:100CD000C4C0C7C0F701E084F184E8CF973009F4BD
:100CE000C0C0983021F481E08093F100B6C0993003
:100CF00009F0B3C0837009F0B4C0EFE1F1E081E026
:100D000021E036E39081992361F08093E9002093FC
:100D1000EB0091919093EC003093ED008F5F873062
:100D200089F78EE78093EA001092EA008F8980931A
:100D30005C0193C08B8D9C8D1092E90010924A014A
:100D4000109249019093480180934701898D811148
:100D500056C08E899D89913A59F4813209F081C03B
:100D600047E050E064E071E080E00E94C70175C098
:100D7000913209F076C0833289F4888D90E0982F03
:100D800088272F89822BA0E0B0E080930001909308
:100D90000101A0930201B09303015FC0803269F4A6
:100DA0008091E80082FFFCCF67E084E091E00E9440
:100DB00020028BEF8093E80006C0823209F04DC01C
:100DC0008F8980930B0180914C01882319F0EEEFFD
:100DD000FAE002C0E0E0F8E08091040190910501A2
:100DE000A0910601B0910701803B9440A105B10597
:100DF00009F07BC080910B0180FF93C076C00E94F8
:100E00004801DC0112960D911C91139701151105F3
:100E100041F1D801ED91FC910190F081E02DBE01EE
:100E20006B5E7F4FC8010995811117C0F8010085DD
:100E30001185ECCF113009F44EC0133091F48F8935
:100E4000882309F445C0823081F440E860E183EBF7
:100E500091E00E948A01882321F08EEF8093E800C0
:100E600079C081E28093EB0075C0813029F440E8BD
:100E70006BE087EA91E0EDCF833099F70E9448015B
:100E8000DC011296ED90FC9013978E010F5F1F4FBF
:100E90006801E114F10479F0D701ED91FC9106802D
:100EA000F781E02DB801C7010995080F111DF70161
:100EB000E084F184EECFD8011C92F601019000206D
:100EC000E9F73197BF016C197D0940E0C601C1CF38
:100ED00061E971E002C065E971E06115710509F22F
:100EE000FB01449150E080E840CF0FB6F894A895FC
:100EF00080916000886180936000109260000FBE56
:100F0000A895EE3F2AE0F20739F08091FE0A909111
:100F1000FF0A91838083A1CF1092FF0A1092FE0AEC
:100F20009CCFEE3F8AE0F80731F080819181909369
:100F3000FF0A8093FE0A87E797E7918380839BE00F
:100F400088E10FB6F894A895809360000FBE909347
:100F5000600083CF6C960FB6F894DEBF0FBECDBF96
:100F6000DF91CF91FF91EF91BF91AF919F918F91C1
:100F70007F916F915F914F913F912F911F910F91B1
:100F8000FF90EF90DF90CF900F900FBE0F901F90CB
:100F900018951F920F920FB60F9211242F933F9323
:100FA0008F939F93AF93BF9380913F0190914001A6
:100FB000A0914101B091420130913E0123E0230F05
:100FC0002D3720F40196A11DB11D05C026E8230F81
:100FD0000296A11DB11D20933E0180933F01909385
:100FE0004001A0934101B09342018091430190914F
:100FF0004401A0914501B09146010196A11DB11D8A
:101000008093430190934401A0934501B09346011E
:10101000BF91AF919F918F913F912F910F900FBEF4
:101020000F901F901895789484B5826084BD84B524
:10103000816084BD85B5826085BD85B5816085BDD3
:1010400080916E00816080936E001092810080918B
:101050008100826080938100809181008160809313
:101060008100809180008160809380008091910058
:1010700082608093910080919100816080939100C3
:10108000809190008160809390008091C100846085
:101090008093C1008091C10082608093C1008091E3
:1010A000C10081608093C1008091C3008160809302
:1010B000C3008091C00082608093C0008091C20014
:1010C00081608093C20080917A00846080937A006E
:1010D00080917A00826080937A0080917A008160AA
:1010E00080937A0080917A00806880937A001092D1
:1010F0005C0110924E0110924D018091D7008160E9
:101100008093D70080EA8093D80089B5806189BD3B
:1011100089B5826089BD09B400FEFDCF61E070E051
:1011200080E090E00E94CC038091D8008F7C8061A9
:101130008093D8008091E000807F8093E0008091D0
:10114000E1008E7E8093E1008DE08093E200559A6D
:10115000209AEEEFFFE7859194918B3F9C4D19F417
:1011600081E080934C018FEF9FEF90936A01809311
:10117000690161E080E00E94400361E087E00E9435
:10118000400360E082E10E94400360E083E10E944E
:1011900040038BE8E82EFF24F39490E0C92E90E002
:1011A000D92E61E080E00E94DD0265E070E080E021
:1011B00090E00E94CC0360E080E00E94DD02C70165
:1011C0000197F1F782E10E947C038C0183E10E9488
:1011D0007C03EC0188E291E00E948B04C8010E942C
:1011E000A30483E391E00E948B04CE010E94A30438
:1011F0000C171D0774F061E087E00E94DD0268EEC5
:1012000073E080E090E00E94CC0360E087E00E9401
:10121000DD0265E070E080E090E00E94CC03C11444
:10122000D10409F4BECF0E940000BBCFEDE5F1E090
:101230001382128288EE93E0A0E0B0E0848395836D
:10124000A683B78380E191E0918380838FEF9FEF46
:10125000958784870895A1E21A2EAA1BBB1BFD0166
:101260000DC0AA1FBB1FEE1FFF1FA217B307E40785
:10127000F50720F0A21BB30BE40BF50B661F771FDD
:10128000881F991F1A9469F76095709580959095BD
:101290009B01AC01BD01CF010895EE0FFF1F05902A
:1012A000F491E02D099481E090E0F8940C945809B1
:0412B000F894FFCFE0
:1012B400FFFFFFFF00E1000000000000000000004D
:1012C4005802060479026E02BF027D029B0200C12D
:1012D40080810000000D0A00576172746F736320EF
:0E12E400662000576172746F736320612000F2
:00000001FF
